:100000000C943A000C9457000C9457000C94570031
:100010000C9457000C9457000C9457000C949103C7
:100020000C9457000C9457000C9457000C945700F4
:100030000C9457000C9457000C9457000C945700E4
:100040000C9457000C9457000C9457000C945700D4
:100050000C94570031011101130115011701190109
:100060001B011D011F012101230125012701290178
:100070002B012D0111241FBECFE5D8E0DEBFCDBF7F
:1000800010E0A0E6B0E0EAE9F3E202C005900D92CC
:10009000A43AB107D9F727E0A4EAB0E001C01D9265
:1000A000A831B207E1F70E940D070C94CB110C9414
:1000B0000000811102C06BBB0895813011F468BB50
:1000C0000895823011F465BB0895833009F462BB52
:1000D0000895811102C06ABB0895813011F467BB95
:1000E0000895823011F464BB0895833009F461BB34
:1000F0000895883058F429B330E0A90102C055951D
:1001000047958A95E2F7CA0181700895803160F4BD
:1001100026B330E08850A90102C0559547958A95CD
:10012000E2F7CA0181700895883160F423B330E0AA
:100130008051A90102C0559547958A95E2F7CA01F9
:1001400081700895803260F420B330E08851A901B5
:1001500002C0559547958A95E2F7CA0181700895C6
:1001600080E00895811109C089B390E002C095959F
:1001700087956A95E2F781700895813049F486B3D6
:1001800090E002C0959587956A95E2F78170089591
:10019000823049F483B390E002C0959587956A95C3
:1001A000E2F781700895833049F480B390E002C093
:1001B000959587956A95E2F78170089580E0089596
:1001C000CF93DF93EC010E94650B2091A400309146
:1001D000A500C9018C0F9D1F8C3D45E0940758F484
:1001E0002817390758F4E901CA55DF4F9093A50045
:1001F0008093A40005C0C0E0D0E002C0C0E0D0E021
:100200000E94390CCE01DF91CF910895089590E0BE
:10021000FC013197E031F10510F5E65DFF4F0C94DC
:10022000820E88E3089589E308958FE2089584E3B8
:10023000089585E3089586E308958AE2089581E3A9
:10024000089582E3089583E308958DE208958DE093
:10025000089580E308958DE308958BE208958FEF6C
:10026000089587E30895CF92DF92FF920F931F9333
:10027000CF93DF9300E010E06894CC24C4F8D12C35
:10028000F02EE601002E02C0CC0FDD1F0A94E2F72B
:100290006C2F82E00E9469006C2F609582E00E94C2
:1002A0005900C0E06C2F82E00E94B200811108C0AA
:1002B000CC0FCC0F81E08F0D8C0F0E94070109C07D
:1002C000CF5FC43079F70F5F1F4F04301105C1F6BF
:1002D0008FEFDF91CF911F910F91FF90DF90CF9023
:1002E0000895C29889EF90E00197F1F700C00000EF
:1002F000C29A8BED95E00197F1F700C000000895D8
:10030000CF93C82FC098C19888B38F7088BB88B32B
:100310009C2F907F892B88BB0E94710188B38F70BE
:1003200088BB88B3C295C07FC82BC8BB0E9471012F
:10033000CF9108958FEF87BB84E088BB83E30E9451
:10034000800182E30E94800188E20E9480018CE0AB
:100350000E9480010895CF93C82FC09AC19888B396
:100360008F7088BB88B39C2F907F892B88BB0E949D
:10037000710188B38F7088BB88B3C295C07FC82BCA
:10038000C8BB0E947101CF910895813049F028F0D7
:10039000823049F0833051F00CC080E8860F0AC0EB
:1003A00080EC860F07C080E8860F04C080E8860FC7
:1003B00001C080E80E948001089581E00E948001D0
:1003C0000895CF93DF93EC018881882331F0219643
:1003D0000E94AB0189918111FBCFDF91CF910895EC
:1003E000CF93DF93EC01862F642F0E94C501CE01CD
:1003F0000E94E101DF91CF910895FC010396928361
:1004000081832FEF3FEF3483238396838583908707
:10041000878310820895FC01118610860895CF937A
:10042000DF93FC01DB0121813281E9018A819B811B
:1004300013969C938E9312978181928115969C932B
:100440008E9314978A819B81EC017D836C83E901F3
:100450007B836A83728361831996FC93EE9318976A
:1004600080818F5F8083DF91CF910895CF93DF9359
:10047000EB01488159814F3F2FEF520731F4DC01E6
:100480001796ED91FC91189717C0FC013396DC018B
:1004900015962D913C911697D9012D913C914217BB
:1004A000530750F00280F381E02DA281B3812D919A
:1004B0003C9142175307B0F7A281B381BB83AA8353
:1004C0001596DC93CE931497FD83EC83D383C2837C
:1004D00099878887FC0120812F5F2083DF91CF914E
:1004E0000895FC01A281B3818481958115969C9326
:1004F0008E931497A481B5818281938113969C93E6
:100500008E931297A085B18511968D919C9112972B
:10051000E817F90731F48481958112969C938E93A4
:100520001197118610868C9181508C93089531E13A
:10053000FC013083319722E220833197A3E3A0832B
:10054000319760833197708331971082319760E8DB
:10055000608331971082319762E06083319763E066
:100560006083319764E06083319765E06083319701
:1005700066E06083319767E06083319768E060836D
:10058000319769E06083319760E160833197308310
:10059000319732E13083319733E13083319734E161
:1005A0003083319735E13083319736E130833197AD
:1005B00037E13083319738E13083319739E1308347
:1005C000319730E23083319731E2308331972083A5
:1005D000319723E2208331974083319750833197BD
:1005E00026E22083319727E22083319728E2208377
:1005F000319729E22083319720E32083319721E34B
:100600002083869708951BBC8CE78ABD8BE08EBD46
:1006100089B7806189BFA0910E07B0910F07CD9176
:10062000CDBFDD91DEBFFF91EF91DF91CF91BF9103
:10063000AF919F918F917F916F915F914F913F917A
:100640002F911F910F91FF90EF90DF90CF90BF906F
:10065000AF909F908F907F906F905F904F903F9062
:100660002F901F900F900FBE0F90089581E0089576
:100670000F920FB6F8940F921F9211242F923F926F
:100680004F925F926F927F928F929F92AF92BF92A2
:10069000CF92DF92EF92FF920F931F932F933F938E
:1006A0004F935F936F937F938F939F93AF93BF937A
:1006B000CF93DF93EF93FF93A0910E07B0910F07B5
:1006C0000DB60D920EB60D920E945A0DA0910E0716
:1006D000B0910F07CD91CDBFDD91DEBFFF91EF91BE
:1006E000DF91CF91BF91AF919F918F917F916F914A
:1006F0005F914F913F912F911F910F91FF90EF903C
:10070000DF90CF90BF90AF909F908F907F906F9031
:100710005F904F903F902F901F900F900FBE0F90C3
:1007200008951F920F920FB60F9211242F933F93AB
:100730004F935F936F937F938F939F93AF93BF93E9
:10074000EF93FF930E94750BFF91EF91BF91AF91D3
:100750009F918F917F916F915F914F913F912F91D9
:100760000F900FBE0F901F901895CF93DF93EC0161
:100770008C8D8823A9F1411117C0482F50E08C813E
:100780009D810E94BA0E2C8D8C819D81820F911DBE
:100790009D838C832A813B818217930708F188818E
:1007A00099819D838C831CC0482F50E08E819F814E
:1007B0000E94BA0E8C8D90E09195819591092E81C1
:1007C0003F81280F391F3F832E8348815981241789
:1007D000350730F42A813B81820F931F9F838E83DC
:1007E0008A8D8F5F8A8FDF91CF910895FC01808180
:1007F00091810097A1F0448D50E026813781240F2C
:10080000351F37832683A281B3812A173B0710F057
:1008100097838683CB01668177810E94BA0E089503
:100820000F931F93CF93DF93EC010FB6F8940F92C1
:100830008E8D1816B4F48989811105C012C089897A
:10084000811104C00EC08E010F5E1F4FC8010E94AF
:10085000E30D81110E946A0E8E8D81508E8F1816C5
:1008600074F38FEF8E8F0F900FBE0FB6F8940F9228
:100870008D8D1816B4F48885811105C012C0888545
:10088000811104C00EC08E01085F1F4FC8010E9475
:10089000E30D81110E946A0E8D8D81508D8F181687
:1008A00074F38FEF8D8F0F900FBEDF91CF911F915B
:1008B0000F910895CF92DF92EF92FF920F931F93C3
:1008C000CF93DF938823D1F1E62EF82E8FE190E0CD
:1008D0000E94E000EC01892B99F1CE2CD12CFC9CDC
:1008E0008001FD9C100D1124C80101960E94E000BA
:1008F000998388830097E1F09C01200F311F3B838F
:100900002A831A8E9D838C830C191D09080F191FC9
:100910001F830E83FB8EEC8E8FEF8D8F8E8FCE011B
:1009200008960E94FD01CE0141960E94FD0108C07B
:10093000CE010E940601C0E0D0E002C0C0E0D0E0DD
:10094000CE01DF91CF911F910F91FF90EF90DF903B
:10095000CF9008959F92AF92BF92CF92DF92EF9285
:10096000FF920F931F93CF93DF9300D000D01F927D
:10097000CDB7DEB78C016B015D834C83922EB12C19
:10098000AA24A3947C0188E0E80EF11C0FB6F89429
:100990000F92F801928D838D9817A8F4492DB60116
:1009A000C8010E94B503F8018189882341F0C8017C
:1009B00041960E94E30D813011F40E9438030F909C
:1009C0000FBE81E050C08C819D81892B21F40F9056
:1009D0000FBE80E048C0B11005C0CE0101960E9454
:1009E000280EBA2C0F900FBE0E94650B0FB6F8941C
:1009F0000F92F801858D8F3F09F4158EF801868DD1
:100A00008F3F09F4168E0F900FBEBE016C5F7F4FB3
:100A1000CE0101960E94330E81111FC00FB6F894CB
:100A20000F92F801928D0F900FBE838D98130FC017
:100A30006C817D81C7010E94C60DC8010E9410040F
:100A40000E94390C8111A2CF0E9438039FCFC801A8
:100A50000E9410040E94390C99CFC8010E94100412
:100A60000E94390C80E00F900F900F900F900F9024
:100A7000DF91CF911F910F91FF90EF90DF90CF907A
:100A8000BF90AF909F9008959F92AF92BF92CF92E8
:100A9000DF92EF92FF920F931F93CF93DF9300D0DB
:100AA00000D01F92CDB7DEB78C016B015D834C8304
:100AB000922EB12CAA24A3947C0181E1E80EF11CB2
:100AC0000FB6F8940F92F801828D882349F1E680E1
:100AD000F780B601C8010E94F603911010C0F8011A
:100AE000828D8150828F80858823B1F0C80108965D
:100AF0000E94E30D813081F40E9438030DC0F8019B
:100B0000F782E6828189882339F0C80141960E94E4
:100B1000E30D81110E9438030F900FBE81E04FC09A
:100B20008C819D81892B21F40F900FBE80E047C0FE
:100B3000B11005C0CE0101960E94280EBA2C0F906C
:100B40000FBE0E94650B0FB6F8940F92F801858DC9
:100B50008F3F09F4158EF801868D8F3F09F4168EAC
:100B60000F900FBEBE016C5F7F4FCE0101960E94B9
:100B7000330E81111EC00FB6F8940F92F801828DCA
:100B80000F900FBE81110FC06C817D81C7010E9443
:100B9000C60DC8010E9410040E94390C811190CF2B
:100BA0000E9438038DCFC8010E9410040E94390CA6
:100BB00087CFC8010E9410040E94390C80E00F907A
:100BC0000F900F900F900F90DF91CF911F910F9189
:100BD000FF90EF90DF90CF90BF90AF909F900895DF
:100BE0000F2EF3E0EF2EF12CF02D3EC021960F5F7B
:100BF0001F4F209709F46BC0AE014150510960E0CE
:100C000070E084E690E00E94F001AE0160E070E0E8
:100C100086E690E00E94F00186E290E00E94080DD6
:100C2000083011051CF30E94DD01C9E0D0E0AE01DF
:100C3000495F5F4F60E070E084E690E00E94F00161
:100C4000AE0160E070E086E690E00E94F00186E28E
:100C500090E00E94080D219751F70E94DD0181E08C
:100C6000E81AF10809F440C001E010E0C0E0D0E06B
:100C7000C0CF40E050E060E070E08EE690E00E947F
:100C8000F00140E050E061E070E08FE790E00E940A
:100C9000F00184EF91E00E94080D0E94DD018AEFCF
:100CA00090E00E94080D2196CD30D10511F720E08B
:100CB00040E050E060E070E08091160790911707E7
:100CC0000E94AA0480E090E00E94F10AD2CF40E0A6
:100CD00050E060E070E086E690E00E94F00186E27D
:100CE00090E00E94080D82CF40E050E060E070E0AC
:100CF0008EE690E00E94F00140E050E061E070E09C
:100D00008FE790E00E94F00184EF91E00E94080DCF
:100D10000E94DD018AEF90E00E94080DC1E0D0E062
:100D2000A8CFCF93DF9300D0CDB7DEB70E946B0B77
:100D30009A83898388EB9BE00E94080D1FEF01E0F6
:100D400003C0182F01C0182F6AE070E0CE01019691
:100D50000E94BE0C0E943301809361008F3F89F393
:100D6000181789F38091AC06811114C08091140783
:100D7000909115070E94F10A0093AC0620E040E034
:100D800050E060E070E080911207909113070E949C
:100D9000AA040BC020E040E050E060E070E08091E9
:100DA0001007909111070E94AA0410916100CCCF06
:100DB000CF93DF9300D0CDB7DEB70E946B0B9A8341
:100DC000898388EB9BE00E94080D64E670E0CE0109
:100DD00001960E94BE0C8DE10E947900813029F4B9
:100DE000809182068F5F80938206809182068E3189
:100DF00061F720E040E050E060E070E0809116078D
:100E0000909117070E94AA0480E090E00E94F10AE6
:100E10000F900F90DF91CF910895AF92BF92CF9234
:100E2000DF92EF92FF920F93CF93DF93CDB7DEB7B0
:100E300028970FB6F894DEBF0FBECDBFA12CB12C02
:100E4000C12CD12C0F2EF4E1EF2EF7E0FF2EF02D68
:100E500004E020E030E046E950E060E070E080EF40
:100E600095E00E94E809CE0101967C0103E020E0B4
:100E700030E046E950E060E070E081E996E00E94F1
:100E8000E809CE0103967C0102E020E030E046E96B
:100E900050E060E070E087E299E00E94E809CE014E
:100EA00005967C0120E030E044E650E060E070E030
:100EB0008FE799E00E94E809CE0107967C0120E0C7
:100EC00030E044E650E060E070E088ED96E00E949B
:100ED000E80960E081E00E945A0490931307809330
:100EE0001207009739F020E040E050E060E070E049
:100EF0000E94AA0420E04FEF5FEF60E070E0809175
:100F00001207909113070E94440560E081E00E945F
:100F10005A049093170780931607009739F020E042
:100F200040E050E060E070E00E94AA0420E04FEF53
:100F30005FEF60E070E080911607909117070E94C4
:100F4000440560E081E00E945A0490931107809369
:100F50001007009739F020E040E050E060E070E0DA
:100F60000E94AA0420E04FEF5FEF60E070E0809104
:100F70001007909111070E9444058F9A8D980E9446
:100F80009A010E943A0B80E090E028960FB6F89400
:100F9000DEBF0FBECDBFDF91CF910F91FF90EF90DD
:100FA000DF90CF90BF90AF900895EF92FF920F9394
:100FB0001F93CF93DF93CDB7DEB760970FB6F8944A
:100FC000DEBF0FBECDBF7B019F938F9388E890E07B
:100FD0009F938F93CE0101969F938F930E94E10E72
:100FE0000F900F900F900F900F900F901E141F04F2
:100FF0006CF48E010F5F1F4FE00EF11EF80181911E
:101000008F010E94AB010E151F05C1F760960FB648
:10101000F894DEBF0FBECDBFDF91CF911F910F912E
:10102000FF90EF90089520E04FEF5FEF60E070E0F9
:1010300080911007909111070E944405813009F0BA
:1010400005C18091610090ED980F9A3060F5609134
:10105000AA0680E00E94C5018091AA068F5F809356
:10106000AA06809161000E94AB018091A9068111BE
:101070000DC08091A806E82FF0E0E856F94F909156
:10108000610090838F5F8093A806089580919706F2
:10109000E82FF0E0E957F94F9091610090838F5F5E
:1010A0008093970608958D3309F0A6C088E996E0ED
:1010B0000E949C0E909386068093850687E896E0B2
:1010C0000E949C0EBC01809160008B3249F018F4A4
:1010D0008A32E1F061C08D3271F08F3239F15CC03B
:1010E0008091850690918606680F791F709384061B
:1010F0006093830651C08091850690918606861B79
:10110000970B909384068093830646C020918506B2
:1011100030918606269FC001279F900D369F900D27
:101120001124909384068093830636C0611571055F
:1011300049F540E050E060E070E08BE890E00E940C
:10114000F00184EF91E00E94080D0E94DD0180E330
:101150000E94AB011092AA061092A9061092A8064E
:10116000E8E9F6E0A7E8B6E088EA96E011921D9279
:10117000E817F907D9F71092970610928406109293
:1011800083060AC080918506909186060E946E0EA5
:1011900070938406609383060E94DD018091A80607
:1011A0006091970670E0680F711D809183069091A1
:1011B00084060E94D507809184068F9380918306D0
:1011C0008F9388E890E09F938F9388E996E09F93B0
:1011D0008F930E94E10EE7E8F6E087E996E00F9032
:1011E0000F900F900F900F900F9011928E179F07F6
:1011F000E1F71092970608958D30E9F40E94DD0121
:1012000080E30E94AB011092AA061092A9061092E8
:10121000A806E8E9F6E0A7E8B6E088EA96E01192C9
:101220001D92E817F907D9F71092970610928406D5
:101230001092830608950E94DD011092AA06809103
:1012400061008093600081E08093A9060895CF93A8
:10125000DF9300D0CDB7DEB70E946B0B9A838983F2
:1012600088EB9BE00E94080D11E064E670E0CE017F
:1012700001960E94BE0C8091AB06811115C020E042
:101280004FEF5FEF60E070E08091120790911307DD
:101290000E944405813049F71093AB060E94DD019E
:1012A00080E30E94AB01E1CF0E941308DECF85B539
:1012B000896685BD8F9A13BC0895CF930E94570904
:1012C000C0E0C3BD8AE090E00E94080DC65FC43054
:1012D000C1F78AEF90E00E94080DCFEFC3BD8AE00E
:1012E00090E00E94080DCA50CB3FC1F78AEF90E012
:1012F0000E94080D15BC0E94DD01CF910895CF9387
:10130000DF9300D0CDB7DEB70E946B0B9A83898341
:1013100088EB9BE00E94080D10E001E069E170E0BD
:10132000CE0101960E94BE0C1111F8CF20E04FEFC4
:101330005FEF60E070E080911607909117070E94C0
:101340004405813059F70E94DD0140E050E060E043
:1013500070E086E990E00E94F0010E945D09102F84
:10136000DDCFCF93DF93EC01E0910E07F0910F07F3
:10137000938382838091B5069091B606C817D907EA
:1013800068F460910E0770910F078091CB069091E1
:10139000CC066E5F7F4F0E94360217C060910E0729
:1013A00070910F078091CD069091CE066E5F7F4FB2
:1013B0000E9436028091620090916300C817D9079D
:1013C00020F4D0936300C0936200DF91CF91089521
:1013D0004F925F926F927F928F929F92AF92BF9245
:1013E000CF92DF92EF92FF920F931F93CF93DF93F1
:1013F0005C014B01EA01290181E290E00E94E000DA
:101400003C01009709F4DBC0C114D10409F0D2C03B
:10141000CE010E94E000F301908F878B009721F4AA
:10142000C3010E940601CBC0AE0165EA70E00E94D4
:10143000C30E2197F3018789908DC80FD91F48E00B
:1014400050E0B401C30149960E94CA0EF30110A2F4
:10145000102F053008F014E0F301168B6301F2E061
:10146000CF0ED11CC6010E940B02C3010C960E9434
:101470000B02F3017186608685E090E0811B910983
:1014800095878487738A628AA201B501CE010E9482
:101490009702F30191838083E114F10419F0F701BD
:1014A000718260820FB6F8940F928091B7068F5FB9
:1014B0008093B70680910E0790910F07892BA1F5B5
:1014C00070920F0760920E078091B7068130D9F5B0
:1014D000C1EED6E00F2EFEE0EF2EF7E0FF2EF02D4E
:1014E000CE010E94FD012996CE15DF05C9F788EDD2
:1014F00096E00E94FD018FEC96E00E94FD0182ECD7
:1015000096E00E94FD0189EB96E00E94FD0188EDC6
:1015100096E09093CE068093CD068FEC96E0909364
:10152000CC068093CB060FC08091B20681110BC010
:10153000E0910E07F0910F078689081720F070924E
:101540000F0760920E07F30186899091B4069817F1
:1015500010F48093B4069091AD069F5F9093AD0612
:101560009091B306981710F48093B30690E09C0115
:10157000220F331F220F331F220F331F820F931F9F
:10158000B6018F51994F0E940F020F900FBE8091AC
:10159000B206882359F0E0910E07F0910F07868973
:1015A000801730F40E94380381E00AC081E008C04F
:1015B00081E006C0FC01D08EC78AC60135CF8FEF0F
:1015C000DF91CF911F910F91FF90EF90DF90CF901F
:1015D000BF90AF909F908F907F906F905F904F9053
:1015E0000895EF92FF920F931F93CF93DF93EC0137
:1015F0000FB6F8940F9280910E0790910F078C17F9
:101600009D0711F0209739F4C0910E07D0910F0774
:10161000E12CF12C01C07E018E010E5F1F4FC8012D
:101620000E9471028C899D89892B21F0CE010C9634
:101630000E947102B80189EB96E00E940F0280912E
:10164000B8068F5F8093B8068091AD068F5F809358
:10165000AD060F900FBE8091B206882321F0EF28CF
:1016600011F40E943803DF91CF911F910F91FF90E9
:10167000EF900895AF92BF92CF92DF92EF92FF92D8
:101680000F93A12CB12CC12CD12CE12CF12C00E01A
:1016900020E030E045E550E06FE970E088E29DE051
:1016A0000E94E809813049F4F8948093B2061092C0
:1016B000B6061092B5060E9403030F91FF90EF90BB
:1016C000DF90CF90BF90AF9008958091B1068F5F6B
:1016D0008093B10608950FB6F8940F928091B506E5
:1016E0009091B6060F900FBE08950F931F93CF935E
:1016F000DF938091B1068111B2C08091B5069091BF
:10170000B60601969093B6068093B5068091B5060D
:101710009091B606892B99F58091CD069091CE06D1
:101720002091CB063091CC063093CE062093CD0687
:101730009093CC068093CB068091AE068F5F80930A
:10174000AE06E091CD06F091CE068081811107C0F2
:101750008FEF9FEF909363008093620010C0E09141
:10176000CD06F091CE060580F681E02D0680F7814A
:10177000E02D828193819093630080936200209199
:10178000B5063091B60680916200909163002817EB
:10179000390708F469C0E091CD06F091CE0680814A
:1017A000882399F0E091CD06F091CE060580F68170
:1017B000E02DC681D7818A819B812091B506309129
:1017C000B60628173907F8F419C08FEF9FEF9093EA
:1017D00063008093620048C0E091CD06F091CE0690
:1017E0000580F681E02DC681D7818A819B81209179
:1017F000B5063091B6062817390728F49093630090
:101800008093620031C08E010E5F1F4FC8010E949D
:1018100071028C899D89892B21F0CE010C960E9442
:1018200071028E899091B306981710F48093B306D5
:1018300090E09C01220F331F220F331F220F331F12
:10184000820F931FB8018F51994F0E940F02E091B0
:10185000CD06F091CE0680818111BECFB6CF8091AA
:10186000B0068F5F8093B006DF91CF911F910F91EB
:101870000895CF92DF92EF92FF920F931F93CF9331
:10188000DF930FB6F8940F928091B1068150809348
:10189000B1068091B106811163C08091B7068111B4
:1018A00032C061C0D7011596ED91FC911697C681A3
:1018B000D781CE010C960E9471028E010E5F1F4FE0
:1018C000C8010E9471028E899091B306981710F496
:1018D0008093B30690E09C01220F331F220F331F29
:1018E000220F331F820F931FB8018F51994F0E940F
:1018F0000F02E0910E07F0910F079E8986899817D5
:1019000058F0DC2C09C0D12C0F2EF2ECEF2EF6E0B3
:10191000FF2EF02DCC24C394F70180818111C2CF1A
:101920008091B006882379F08091B006882359F021
:101930000E94750B8091B00681508093B006809113
:10194000B0068111F5CFF1E0DF1621F08091AF06EE
:10195000813041F41092AF060E94380381E003C049
:1019600080E001C080E00F900FBEDF91CF911F910A
:101970000F91FF90EF90DF90CF9008950F931F93FA
:10198000CF93DF938C01EB010E94650BF8018081FE
:101990009181C80FD91F2091B5063091B60628173E
:1019A000390768F4C817D90750F58091B5069091AA
:1019B000B606D183C0838C179D07B0F40BC0C8173F
:1019C000D907C8F08091B5069091B6068C179D078F
:1019D00090F015C080910E0790910F0702960E941B
:1019E0007102CE010E94B1090E94390C81110BC015
:1019F0000E94380308C0F801D183C083EBCFF801FF
:101A0000D183C083F1CFDF91CF911F910F910895C2
:101A1000CF93DF93EC01892BB1F00E94650B80918D
:101A2000B5069091B606C80FD91F80910E07909108
:101A30000F0702960E947102CE010E94B1090E9416
:101A4000390C811102C00E943803DF91CF910895B3
:101A500009EB16E08091B806882349F10E94650BD6
:101A6000D801CC910E94390CCC2309F10FB6F8941F
:101A70000F92D8011596ED91FC911697C681D781EA
:101A8000CE0102960E9471028091B7068150809328
:101A9000B7068091B80681508093B8060F900FBEAC
:101AA0008F89988D0E940601CE010E9406010E9436
:101AB0003803D0CF8091B106811113C08091B30655
:101AC00090E0FC01EE0FFF1FEE0FFF1FEE0FFF1F58
:101AD0008E0F9F1FFC01EF51F94F8081882329F061
:101AE0001BC081E08093AF0608958091B3068150BA
:101AF0008093B3068091B30690E0FC01EE0FFF1FC8
:101B0000EE0FFF1FEE0FFF1F8E0F9F1FFC01EF5107
:101B1000F94F8081882349F38091B30690E09C01BE
:101B2000220F331F220F331F220F331F280F391F9D
:101B3000D901AF51B94F1196ED91FC9112970280E6
:101B4000F381E02D1296FC93EE9311972C51394FAF
:101B5000E217F30729F422813381FD0132832183C7
:101B6000FC01EE0FFF1FEE0FFF1FEE0FFF1F8E0F8A
:101B70009F1FFC01EF51F94F0180F281E02D86811A
:101B8000978190930F0780930E070895CF93DF936B
:101B9000EB0160910E0770910F07645F7F4F0E9409
:101BA000360280910E0790910F0702960E947102F3
:101BB0008091B5069091B6068C0F9D1F0E94B109C9
:101BC000DF91CF9108950F931F93CF93DF93DC01A3
:101BD0001596ED91FC911697C681D7818E01045F11
:101BE0001F4FC8010E9471028091B10681111CC073
:101BF0000A501109C8010E9471028E899091B306A2
:101C0000981710F48093B30690E09C01220F331FC5
:101C1000220F331F220F331F820F931FB8018F51E2
:101C2000994F0E940F0205C0B80182EC96E00E9415
:101C30000F02E0910E07F0910F0781E02E8996893F
:101C4000291708F480E0DF91CF911F910F9108953B
:101C50002091AE06FC0120832091B5063091B60696
:101C6000328321830895FC010FB6F8940F9280917E
:101C7000AE069081981749F08091B5069091B6060E
:101C80002181328182179307F8F48091B5069091F3
:101C9000B60641815281DB012D913C911197841B45
:101CA000950B8217930790F4CF01E091B506F09160
:101CB000B606BF01641B750B261B370B2D933C9397
:101CC0000E94280E80E003C081E001C081E00F90F7
:101CD0000FBE089581E08093AF06089597FB072E0D
:101CE00016F4009407D077FD09D00E94880E07FCF7
:101CF00005D03EF4909581959F4F0895709561951C
:101D00007F4F0895EE0FFF1F0590F491E02D099489
:101D1000AA1BBB1B51E107C0AA1FBB1FA617B70711
:101D200010F0A61BB70B881F991F5A95A9F780952D
:101D30009095BC01CD010895FC0188279927E8946E
:101D400021912032E9F3293010F02E30C8F32B32E4
:101D500041F02D3239F4689404C00E94D90E820FEC
:101D6000911D219120532A30C0F31EF49095819546
:101D70009F4F0895FB01DC0102C001900D9241507C
:101D80005040D8F70895DC0101C06D934150504098
:101D9000E0F70895FB01DC014150504048F001900C
:101DA0000D920020C9F701C01D9241505040E0F74C
:101DB00008957AE0979F902D879F802D910D112493
:101DC0000895AEE0B0E0E7EEFEE00C94A2110D89BC
:101DD0001E8986E08C831A8309838FEF9FE79E8399
:101DE0008D83AE01475E5F4F6F89788DCE0101967E
:101DF0000E94030FEF81F885E00FF11F10822E96ED
:101E0000E4E00C94BE11ABE0B0E0E9E0FFE00C943C
:101E100094116C017B018A01FC0117821682838177
:101E200081FFCCC1CE0101963C01F6019381F701FF
:101E300093FD859193FF81917F01882309F4BAC1B5
:101E4000853239F493FD859193FF81917F0185322D
:101E500029F4B60190E00E94FA10E7CF912C212CD2
:101E6000312CFFE1F315D8F08B3279F038F4803261
:101E700079F08332A1F4232D20611DC08D3261F0F1
:101E8000803369F4232D216016C0832D8260382EA3
:101E9000E32DE4603E2E2AC0F32DF8601DC037FC10
:101EA0002DC020ED280F2A3040F08E32B9F436FCD8
:101EB00081C1232D2064322E19C036FE06C08AE06F
:101EC000989E200D1124922E11C0EAE02E9E200D26
:101ED0001124222EF32DF0623F2E08C08C3621F4FF
:101EE000832D8068382E02C0883641F4F70193FDB7
:101EF000859193FF81917F018111B3CF982F9F7DB1
:101F00009554933028F40C5F1F4F9FE399830DC0C5
:101F1000833631F0833771F0833509F059C021C021
:101F2000F801808189830E5F1F4F88248394912C50
:101F3000530113C02801F2E04F0E511CF801A0809C
:101F4000B18036FE03C0692D70E002C06FEF7FEFF5
:101F5000C5010E94EF104C018201F32DFF773F2E47
:101F600016C0280122E0420E511CF801A080B18069
:101F700036FE03C0692D70E002C06FEF7FEFC50130
:101F80000E94E4104C01F32DF0683F2E820133FCD7
:101F90001BC0822D90E088169906B0F4B60180E24D
:101FA00090E00E94FA102A94F4CFF50137FC859155
:101FB00037FE81915F01B60190E00E94FA10211076
:101FC0002A9421E0821A91088114910471F7E8C0E3
:101FD000843611F0893641F5F80137FE07C060817B
:101FE0007181828193810C5F1F4F08C06081718174
:101FF000072E000C880B990B0E5F1F4FF32DFF76F9
:102000003F2E97FF09C090958095709561957F4F01
:102010008F4F9F4FF0683F2E2AE030E0A3010E94CF
:102020003611882E861845C0853731F4232D2F7E32
:10203000B22E2AE030E025C0932D997FB92E8F363D
:10204000C1F018F4883579F0B5C0803719F08837B9
:1020500021F0B0C0E92FE061BE2EB4FE0DC0FB2D13
:10206000F460BF2E09C034FE0AC0292F2660B22EAC
:1020700006C028E030E005C020E130E002C020E1E9
:1020800032E0F801B7FE07C06081718182819381DF
:102090000C5F1F4F06C06081718180E090E00E5F91
:1020A0001F4FA3010E943611882E8618FB2DFF7743
:1020B0003F2E36FE0DC0232D2E7FA22E891458F4FC
:1020C00034FE0BC032FC09C0832D8E7EA82E05C0C5
:1020D000B82CA32C03C0B82C01C0B92CA4FE0FC08F
:1020E000FE01E80DF11D8081803321F49A2D997E47
:1020F000A92E09C0A2FE06C0B394B39404C08A2DD1
:10210000867809F0B394A3FC11C0A0FE06C0B214F7
:1021100088F4280C922C9B180EC0B21460F4B601FF
:1021200080E290E00E94FA10B394F7CFB21418F452
:102130002B1802C0982C212CA4FE10C0B60180E3FD
:1021400090E00E94FA10A2FE17C0A1FC03C088E72D
:1021500090E002C088E590E0B6010CC08A2D867838
:1021600059F0A1FE02C08BE201C080E2A7FC8DE223
:10217000B60190E00E94FA10891438F4B60180E3A9
:1021800090E00E94FA109A94F7CF8A94F301E80D38
:10219000F11D8081B60190E00E94FA108110F5CF08
:1021A000222009F442CEB60180E290E00E94FA10AB
:1021B0002A94F6CFF6018681978102C08FEF9FEFB8
:1021C0002B96E2E10C94B011FC0105906150704037
:1021D0000110D8F7809590958E0F9F1F0895FC01F0
:1021E0006150704001900110D8F7809590958E0F46
:1021F0009F1F08950F931F93CF93DF93FB012381BC
:1022000021FD03C08FEF9FEF2CC022FF16C0468137
:102210005781248135814217530744F4A081B1814D
:102220009D012F5F3F4F318320838C93268137811F
:102230002F5F3F4F3783268314C08B01EC01FB01D6
:102240000084F185E02D0995892BE1F6D8011696D9
:102250008D919C911797019617969C938E93169744
:10226000CE01DF91CF911F910F910895FA01AA2716
:10227000283051F1203181F1E8946F936E7F6E5FC9
:102280007F4F8F4F9F4FAF4FB1E03ED0B4E03CD077
:10229000670F781F891F9A1FA11D680F791F8A1F5A
:1022A000911DA11D6A0F711D811D911DA11D20D0C1
:1022B00009F468943F912AE0269F11243019305D7B
:1022C0003193DEF6CF010895462F4770405D41936C
:1022D000B3E00FD0C9F7F6CF462F4F70405D4A33B9
:1022E00018F0495D31FD4052419302D0A9F7EACF81
:1022F000B4E0A6959795879577956795BA95C9F7B0
:1023000000976105710508959B01AC010A2E0694A2
:102310005795479537952795BA95C9F7620F731F5B
:10232000841F951FA01D08952F923F924F925F9298
:102330006F927F928F929F92AF92BF92CF92DF92D5
:10234000EF92FF920F931F93CF93DF93CDB7DEB73A
:10235000CA1BDB0B0FB6F894DEBF0FBECDBF0994CE
:102360002A88398848885F846E847D848C849B8425
:10237000AA84B984C884DF80EE80FD800C811B8133
:10238000AA81B981CE0FD11D0FB6F894DEBF0FBE62
:0A239000CDBFED010895F894FFCFD2
:10239A0001FFFFFF200057656C636F6D6500707267
:1023AA0065737320616E79206B657920746F0063A1
:1023BA006F6E74696E7565002564004D61746820DE
:1023CA004572726F72005374616E642042790049DB
:0423DA00444C45002A
:00000001FF
